:020000041000EA
:1000000000B5324B212058609868022188439860DF
:10001000D860186158612E4B002199600221596106
:100020000121F02299502B49196001219960352056
:1000300000F044F80222904214D00621196600F024
:1000400034F8196E01211966002018661A6600F04E
:100050002CF8196E196E196E052000F02FF8012189
:100060000842F9D1002199601B49196000215960AB
:100070001A491B48016001219960EB211966A021F2
:10008000196600F012F800219960164914480160C1
:100090000121996001BC002800D000471248134993
:1000A000086003C880F30888084703B5996A0420EC
:1000B0000142FBD001200142F8D103BD02B5186610
:1000C0001866FFF7F2FF186E186E02BD00000240BE
:1000D000000000180000070000035F00212200005C
:1000E000F4000018222000A00001001008ED00E03C
:1000F00000000000000000000000000074B24E7A12
:1001000000200420F7010010C3010010C5010010F9
:10011000C1010010C1010010C1010010C101001097
:10012000C1010010C1010010C1010010C701001081
:10013000C1010010C1010010C9010010CB01001065
:10014000CD010010CD010010CD010010CD01001037
:10015000CD010010CD010010CD010010CD01001027
:10016000CD010010CD010010CD010010CD01001017
:10017000CD010010CD010010CD010010CD01001007
:10018000CD010010CD010010CD010010CD010010F7
:10019000CD010010CD010010CD010010CD010010E7
:1001A000CD010010CD010010CD010010CD010010D7
:1001B000CD010010CD010010CD010010CD010010C7
:1001C00000BE00BE00BE00BE00BE00BE00F04BF888
:1001D000103800BEF2EB887190580010B85800102B
:1001E0003402001090A31AE700202149086006C8D5
:1001F00081F3088810471F48006800282FD10DA4FC
:100200000ECC002902D000F012F8F9E71A491B4A77
:10021000002000E001C19142FCD1194988471949E9
:1002200088471949884700BEFDE701C901C29A42C3
:10023000FBD37047B8580010C0000020B40600205F
:10024000AC5E00100000042000000420AC5E001032
:1002500000100420001004200000000070470B482C
:1002600003F012F80047EFF30580C0B270470000BA
:1002700008ED00E0000000D0B8060020900A002041
:10028000D91800106D040010951800105756000082
:1002900006005250ABB3605388570010060052500E
:1002A000861C030298570010060052505422A29D4B
:1002B000A457001005005250DE65F468AC5E0010D3
:1002C000F8B5C0460448054B10B5834203D0044B33
:1002D000002B00D0984710BDB4060020B4060020C3
:1002E0000000000006480749091A8910CB0F591869
:1002F00010B5491003D0044B002B00D0984710BD17
:10030000B4060020B40600200000000010B5074C21
:100310002378002B09D1FFF7D5FF054B002B02D026
:10032000044800E000BF0123237010BDB80700207F
:100330000000000048490010054B10B5002B03D009
:100340000449054800E000BFFFF7CCFF10BDC046E0
:1003500000000000BC0700204849001010B5002232
:1003600008E0194B5B68DB03FBD4174BFF24240424
:100370001C610132824226D24C08A4183F2323403C
:10038000092BEED91C000F3C092C0BD91E3B092B65
:1003900011D80D4B5B68DB03FBD40B4BFF2424020D
:1003A0001C61E6E7084B5B68DB03FBD4064BFF24CC
:1003B00024061C61DDE7044B5B68DB03FBD4024BC6
:1003C00000241C61D5E710BD0000205010B50400CA
:1003D0000800642102F0ACFF002000E00130A042E0
:1003E0000FD20A025218120252181202054B5B6811
:1003F000DB03FBD4034B1A6101316329EED90021E1
:10040000ECE710BD0000205070B505004B070DD182
:10041000002409E004F022FA0002054B5B68DB03CC
:10042000FBD4034B18610134AC42F3D370BDC0461A
:100430000000205070B505004B0713D1002409E0DF
:10044000012252421202084B5B68DB03FBD4064BCD
:100450001A610134AC4205D204F000FA0307EFD070
:100460000022EFE770BDC04600002050F0B58DB00F
:1004700004F012F80221504804F002F84F4C5049A1
:10048000200004F039F905000621022000F0AAF846
:100490000123009302220021200004F049F90023E7
:1004A0000B9380235B020893F8235B020993C0231C
:1004B0001B030A93102208A904A803F099FEEA1C62
:1004C000EB01120313438022920507923D4A134029
:1004D0000593102204A908A803F08AFE0B9B3A4A50
:1004E0001A4080231B0113430B930A9B0393374A43
:1004F0001A4080239B0213439B009B088022D20555
:1005000013430A93052001F079FB03F09BFD30496A
:1005100003F079FD061C03F0BDFD84B2002C1FD052
:10052000200003F08FFD011C301C03F062FD8721C9
:10053000C90503F07EFD03F0ADFDC0B20002240446
:10054000204308901D4C08AB2A000021200004F035
:1005500027F923680122934313432360002514E005
:100560000020EBE701277F4218E01A481FE0F30064
:10057000194A9B582900962098470A2000F0FCFD54
:10058000ED190134154B9C42F1DD04F067F90326A7
:10059000064004F063F94300E4D50127F2000E4B56
:1005A0009B18586803F03AFF012FDED00C4803F087
:1005B00035FF0024E6E7C0466049001000002050E7
:1005C000C8490010FFFFFF9FFF83FFFFFFFFF5C13A
:1005D0000024F44A4849001080490010E703000055
:1005E0005449001010B58300084A944663441C68BF
:1005F00040226240C02414408022520113431C60F8
:10060000C000034B9C466044416010BD04C00140E3
:1006100000400140EFF3108072B6034B1B68002BC3
:10062000FBD0BFF35F8F70472C0100D0BFF35F8F0B
:10063000024B00221A6080F3108870472C0100D012
:1006400070B505000E001400FFF7E4FFF208AA18C9
:1006500015780721314001238B402B4205D1DBB2B5
:100660002B431370FFF7E2FF70BD3100200001F053
:10067000AFF90000034B1B6802201840431E98414D
:10068000C0B2704700C00640002307E0054A9A1830
:100690009200BFF35F8F0021116001331F2BF5D94A
:1006A0007047C04640000034054A1078431CDBB256
:1006B0001370172B02D9130010221A707047C0460E
:1006C000B001002070B505000C00062001F096FA7C
:1006D000C000210002F02CFEC60908D00E4B9E423D
:1006E00017D87F23184001303400460800E0012469
:1006F0006C62AE622C3580239B011D4300232B606E
:10070000062001F07BFA8000A101891902F010FE99
:1007100070BD0026014CEBE7FEFF0000FFFF00006C
:1007200000290AD180225200054B9C466044434276
:1007300058414000034BC25270470A22F4E7C046BA
:100740000080FCBF8C08002070B505000C0006205E
:1007500001F054FA00282DD0174B9D4227D080225B
:10076000D203164B1A60164B1A60164B9B68110089
:100770009943FAD100212800FFF7D2FF2100280079
:10078000FFF7A0FF2C002C34E96A60224A406E215A
:10079000114080225201224311600B4B2B638023B6
:1007A0009B01234310221A600323AB6470BD802297
:1007B0001204D6E70020F9E70080034000E0004083
:1007C00000F0004000C000400103000070B50500CB
:1007D0000C00080000F020FD200000F005FE084994
:1007E000200000F045FDFFF75FFF064B9C4660448C
:1007F000800068602C75A400034BE55070BDC046B6
:10080000190B0010400000345C0800200A4B1A68E5
:10081000EFF3108172B61368002BFCD0BFF35F8F2B
:10082000054B1B68BFF35F8F00221A6081F31088AD
:1008300040BF0020002170477008002010B500293B
:1008400022D003681B7B99421ED8174B9C466144FB
:10085000090183689C4661440C684968002A19D0E4
:1008600003681B7B9A4215D883680F48844662440C
:1008700012019A1810685368020001208B4201D8B7
:100880000ED00020C0B210BD084B094A3B210948D8
:1008900001F004F8054B064A3B21064800F0FEFF34
:1008A000A242EFD8EDE7C046FFFFFF0FA84B0010B4
:1008B000304A0010A84C001010B500291FD0037B4F
:1008C00099421CD84B005B18033B0468A446634460
:1008D00000291AD0002A1ED0914222D0002A26D008
:1008E000047BA24223D804685000801803382018E3
:1008F00081701978002920D041701A7010BD104BFA
:10090000104A6921104800F0C9FF104B104A70319D
:100910000D4800F0C3FF0F4B0D4A71210A4800F04B
:10092000BDFF0D4B0A4A7221074800F0B7FF044B88
:10093000044A6921044800F0B1FF1A70DEE7C0469E
:10094000004C0010F04900101C4C0010644C0010CA
:10095000FC490010704C00107C4C001070B5060073
:100960000D00140000290BD0002A12D08068736893
:100970009847002806D12A0021003000FFF79CFF8D
:10098000200070BD220029003000FFF795FF2C00E9
:10099000F6E70C00F4E7000070B5CE4600B583B072
:1009A0000500009201930AAB1C780BAB1B789946AB
:1009B000002C28D003685A7B944209D10123002BD4
:1009C0001BD1002C3DD1200003B004BC914670BD6A
:1009D000002C0CD01A7B944209D81A6863001B19AA
:1009E000033BD3189B78002BE9D00123E7E73F4B6B
:1009F0003F4A69213F4800F051FF3F4B3F4A652184
:100A00003F4800F04BFF03689C7B002CD9D012D0EC
:100A10001A7B94420FD862001219033A19688C4667
:100A2000624451789973002900D1D97300239370DF
:100A300053701370C5E72D4B2D4A69212D4800F0E6
:100A40002DFF002C3BD02B681B7B9C4237D82D4BB5
:100A5000E3181B01AA68944663440099019A19603F
:100A60005A60089A9A60099ADA602E68002C2CD095
:100A700031D0337B9C422ED863001B19033B326874
:100A80009446634400229A705A701A70717B220057
:100A90003000FFF763FF7073844200D093E7287D36
:100AA000009A019B00F02CFC061E02D04B46002B46
:100AB00017D00C9B002B00D185E71E7083E7124BEB
:100AC000124A3B210E4800F0E9FE114B114AA621C3
:100AD000084800F0E3FE054B054A6921054800F08F
:100AE000DDFE2868210000F057FEE2E7004C001010
:100AF000F04900101C4C00109C4A0010684A00107D
:100B0000A84C0010FFFFFF0FA84B0010304A001048
:100B1000A44C0010104A0010F0B5DE4657464E4671
:100B20004546E0B58BB009908200BA4BD7583D00DE
:100B3000A3E0B94BB94A3F21B94800F0AFFEB94B29
:100B4000B94A3B21B94800F0A9FE002B02D1002A86
:100B500000D0BCE00021604600F014FEA04219D194
:100B60003268736806920793B3689946F3689A46A9
:100B70004B46002B14D0002C18D02B681B7B9C42BA
:100B800014D8631EEA68D35C08931B0218432861DB
:100B90000020A4E0A64BA74A8C21A44800F07EFECA
:100BA000A54BA44A9021A14800F078FE9D4BA34A92
:100BB00040219E4800F072FE00239A46994600208C
:100BC0008DE02B69002B00D1A9E043451CD1069A8A
:100BD000079B10001900921BBB41994202D804D117
:100BE000904202D901225242D317002B12DB00217E
:100BF00004910131039102945146019149460091BB
:100C00002800FFF7C9FE30E08D4B8A4A9F218748B4
:100C100000F044FE804B814A3F21814800F03EFEB7
:100C2000002F02D1002E00D07CE02A68002C00D1D9
:100C3000C7E0537B9C4200D0ACE00123002B00D0E6
:100C4000BFE0D37B002B00D0C1E0D473002C00D1D7
:100C5000D0E02B681B7B9C4200D9CBE0013CEB68C9
:100C60009C46644423780133237000232B616A6817
:100C7000BFF35F8F13608BF3108800F0D9FA00295F
:100C800000DA56E700230024069307946A68EFF31E
:100C9000108772B61368002BFCD0BFF35F8F2B68F0
:100CA0009C465C7B002C87D000D148E71B7B9C4294
:100CB00000D944E7634BE6183601AB6898464644D2
:100CC00032687368121A8B41002B00DC3DE73268F2
:100CD0007368099800F014FB00239A4699466B68E4
:100CE000BFF35F8F00221A6087F310884B46002BFA
:100CF00000D185E0089B1B0223439846514618000B
:100D0000C84706000F006A68EFF3108B72B61368CD
:100D1000002BFCD0BFF35F8F002F00DA51E7002FCC
:100D200000DC7DE72B69002B00D17EE743451FD116
:100D300000F07EFA02000B1E20DB01001800921961
:100D40007B41984202D804D1914202D901225242F9
:100D5000D317002B18DB0021049101310391029479
:100D600051460191494600912800FFF715FE7CE7A6
:100D7000334B304AA2212D4800F090FD264B274AE4
:100D80003F21274800F08AFD234B244A3F21244875
:100D900000F084FD002C0ED0137B9C420BD8630026
:100DA0001B19033B11688C4663449B78002B00D1D0
:100DB00044E7012342E7244B244A6921244800F0F8
:100DC0006DFD244B244AF721214800F067FD002BDC
:100DD0000AD0117B8B4207D85900CB18033B11680E
:100DE0008C4663445C7030E7174B184A69211848F9
:100DF00000F054FD0B4B114A40210C4800F04EFD11
:100E0000002800D039E70BB03CBC90469946A2467A
:100E1000AB46F0BD5C080020C44A0010D849001061
:100E2000E04A0010A84B0010304A0010A84C0010F7
:100E3000244B0010804A00103C4B00103C4A00102C
:100E4000484B0010FFFFFF0F004C0010F04900104E
:100E50001C4C0010844B0010204A001010B50A4BA7
:100E60005B68002B04D00A21084800F0DDFA10BDB1
:100E7000054C2300064A1021206800F0A1FB032145
:100E80002000FFF7A3FCEEE7B4010020700800206B
:100E90003D08001010B5064B5B68002B01D00448DC
:100EA00010BD044B044A5C21044800F0F7FCC04626
:100EB000B4010020DC4B0010504A0010A84C001078
:100EC000F0B5DE4657464E464546E0B589B0804609
:100ED00016001F00129B994614AB1B789A461F23DD
:100EE0006B4400221A7033E000280AD04246126890
:100EF000127B904205D8421E4146C9688A5C9346DF
:100F000046E0434B434A4021434800F0C7FC3200CF
:100F10003B00361BAF41BB4202D804D1B24202D9DA
:100F200001267642F717002F12DA3C4B3C4A3F214C
:100F30003C4800F0B3FC394B394A3F21394800F0B6
:100F4000ADFC01246442E517002D4EDB26002F0086
:100F500043465B68EFF3108572B61C6862425441E9
:100F6000E4B2002CF9D1BFF35F8F1F236B440493CD
:100F7000002303930293139B01934B46009332008B
:100F80003B004046FFF708FD031EADD1002293460B
:100F900041464968BFF35F8F00220A6085F31088DD
:100FA000002B28D01F236B441B78002B02D15A46FC
:100FB00014020443002B20D05346002B1DD013995C
:100FC0002000C84704000D0003000B431DD000297A
:100FD0009DDB00F02DF90029ADDB24184D41A9421D
:100FE000AFD8B1D1A042AFD9ABE70C4B0C4A3F21EF
:100FF0000C4800F053FC01246442200009B03CBCC2
:1010000090469946A246AB46F0BD0024F5E7C0469F
:10101000A84B00103C4A0010A84C0010C44A001015
:10102000D8490010E04A0010F0B587B006000F0064
:10103000FFF719F900282AD106246442E517A419FC
:101040007D41BD4202D803D1B44201D9002400251C
:10105000002D1FDB0494059500F0EAF800291FDB42
:10106000241A8D41002D21DDFFF714FF0023029388
:101070000193254B0093049A059BFFF721FF00285D
:1010800031DA3000390000F0DFF807B0F0BD1F485A
:1010900000F09EFC1E4B1F4A3F211F4800F0FEFB44
:1010A0001B4B1C4A3F211C4800F0F8FB002DE8D1E7
:1010B000002CD9D1E5E7002300E00023002BE0D18C
:1010C000164B1A68EFF3108172B61368002BFCD030
:1010D000BFF35F8F114B1B68BFF35F8F00221A6055
:1010E00081F3108820BF0499059A0D4B5B6A9A42E0
:1010F000E3D80B48806A884203D29A42DBD00123AE
:10110000DCE70123DAE7C0460D080010DC4C0010D4
:10111000C44A0010D8490010E04A001070080020AE
:101120000040054070B504000D0000F081F8002972
:1011300010DB02000B00001969418B4202D804D178
:10114000824202D901204042C117002908DBFFF783
:101150006BFF70BD054B064A3F21064800F09EFB21
:10116000024B034A3F21034800F098FBC44A001099
:10117000D8490010E04A001010B5FA22920000236E
:10118000002102F019FFFFF7CDFF10BD70B5EFF39E
:1011900005833F2018401038EFF3108472B6194BC6
:1011A0001B68002BFBD0BFF35F8F01231900814028
:1011B000154A5163154A12781500C5402B4214D0C8
:1011C000114B5D6A8300124E9B599D4206D38300EA
:1011D000104D5B598A430D490A7007E00A4A031D06
:1011E0009B0099589950002300E00023BFF35F8FC4
:1011F000044A0021116084F31088002B00D0984726
:1012000070BDC046280100D0004005408A0800207B
:1012100074080020DC07002010B50100024A0348D2
:10122000FFF70EFA10BDC046484D00108808002098
:10123000044B596A00E01900024B986A5B6A9942B4
:10124000F9D1704700400540084B5B6A01E0074B4D
:101250005B6A8B42FBD301E0044B5B6A8B4203D198
:10126000024B9B6A8342F7D37047C046004005405B
:1012700070B504000D00EFF3108672B61B4B1B68AF
:10128000002BFBD0BFF35F8F002D1CD0200000F09F
:101290002DFD174B98420BD01900200000F02EFDB9
:1012A0000121200000F01AFD0123A340114A136020
:1012B000A400114BE550BFF35F8F0C4B00221A6066
:1012C00086F3108870BDA2000B4B0021D150012283
:1012D000A2400A490B7893430B700549200000F0A7
:1012E00037FD0021200000F0F9FCE4E7280100D0E0
:1012F0008D11001038600540DC0700208A080020AE
:10130000F0B5DE4600B584B00500140001921E0061
:101310000293FFF78DFF03948E422CD9EFF3108BCD
:1013200072B6294B1B68002BFBD0BFF35F8F274A97
:1013300017780124AC40E3B23B431370244B5C6349
:101340002A1D92000199D150AA00224902985050BA
:101350001B6A23421BD11E4B1B6C234211D0002061
:10136000BFF35F8F184B00221A608BF3108804B014
:1013700004BC9346F0BD8E4201D18442CED80120F8
:10138000F5E7154B154AC121154800F087FAFFF71C
:101390004FFF8E4214D802D1039B834210D80B4BCF
:1013A0001B78BB420ED00A4B1C625C631F222A4092
:1013B000012393400B4A1360044B1F700120CFE7B9
:1013C0000020CDE70120CBE7280100D08A080020CB
:1013D00000400540740800206C4D00102C4D00109A
:1013E000904D001080E200E010B5EFF3108472B66B
:1013F0000A4B1B68002BFBD0BFF35F8F0123834098
:10140000074A136207490A789A430A70BFF35F8F4D
:10141000024B00221A6084F3108810BD280100D00E
:10142000004005408A080020024B9C466144890028
:10143000016070474000003410B50400FFF734F934
:1014400001002000FFF7F0FFFF232371BFF35F8F40
:1014500010BD10B50400FFF727F901002000FFF7C9
:10146000E3FFFF23237100236371BFF35F8F10BD80
:1014700010B500291FD0037B99421CD84B005B1884
:10148000033B0468A446634400291AD0002A1ED0F6
:10149000914222D0002A26D0047BA24223D804689D
:1014A000500080180338201881701978002920D046
:1014B00041701A7010BD104B104A6921104800F09D
:1014C000EDF9104B104A70310D4800F0E7F90F4B61
:1014D0000D4A71210A4800F0E1F90D4B0A4A7221C8
:1014E000074800F0DBF9044B044A6921044800F086
:1014F000D5F91A70DEE7C046004C0010644E0010AB
:101500001C4C0010644C0010704E0010704C001009
:101510007C4C001070B506000D00140000290BD0A3
:10152000002A12D0806873689847002806D12A00E4
:1015300021003000FFF79CFF200070BD2200290031
:101540003000FFF795FF2C00F6E70C00F4E70000F1
:1015500010B50023437301338373037BC3730123EB
:10156000027B9A4214D9002B0CD0027B934209D8FB
:101570005A00D218033A01688C4662440133DBB248
:101580005370EDE70B4B0C4A69210C4800F086F9CB
:10159000002A09D0924207D8016853009A18033AEA
:1015A0008A180023537010BD024B034A6921034877
:1015B00000F074F9004C0010644E00101C4C001038
:1015C00010B5017342608360FFF7C2FF10BD0000D9
:1015D00070B50400002901D1080070BD002934D085
:1015E000037B994231D84B005B18033B0268944659
:1015F00063445A78002AEFD02DD0037B9A422AD830
:1016000053009B18033B0068844663445D780020C8
:101610005870002925D0237B994222D84B005B18B3
:10162000033B206884466344002058702000FFF785
:1016300071FF060029002000FFF7CAFF02003100F9
:101640002000FFF767FF0100C6E7094B094A69213F
:10165000094800F023F9064B064A6921064800F0C4
:101660001DF9034B034A6921034800F017F9C046EE
:10167000004C0010644E00101C4C001070B50500AA
:101680000C001600002928D02DD0037B99422AD8BF
:101690004B005B18033B0268944663445A78002A67
:1016A00027D19A78002A2AD11978FFF791FF0300F1
:1016B000002E03D0EA7B002A27D1EC73002B37D110
:1016C000002C49D02B7B9C4246D82A6863001C1909
:1016D000033C14190023637070BD224B224A382149
:1016E000224800F0DBF8224B224A6921224800F010
:1016F000D5F8224B1C4A3A211C4800F0CFF8204B69
:10170000194A3B21194800F0C9F8002A0AD0297B60
:101710008A4207D851008A18033A29688C466244E5
:101720005470CAE7124B134A6921134800F0B6F807
:10173000002B0BD02A7B934208D843001B18033B95
:101740002A689446634400229A70B9E7084B094A14
:101750006921094800F0A2F8054B064A69210648AC
:1017600000F09CF8D84E0010844E0010E04E00109F
:10177000004C0010644E00101C4C0010144F001060
:101780003C4F001070B504000A00457B2900FFF7AC
:1017900075FF6073280070BD10B50400002966D085
:1017A000437B8B420ED0002911D0037B99420ED887
:1017B0004B005B18033B0268D0188378002B0CD1D8
:1017C000002055E00121FFF7DDFF012050E0294B0B
:1017D000294A6921294800F061F8002B1FD0227B9B
:1017E00093421CD85A00D318033B2268D2181378AE
:1017F0008B421AD0002B1BD0227B934218D85A0060
:10180000D318033B2268D21853788B4216D0002B92
:10181000F0D11B4B1B4A67211B4800F03FF8154BCA
:10182000154A6921154800F039F84378137007E02C
:10183000104B114A6921114800F030F84378537079
:1018400000238370437001222000FFF717FF02007E
:10185000617B814205D02000FFF75CFE60730120B0
:1018600006E00A4B074A6D21074800F017F80020F0
:1018700010BDC046004C0010644E00101C4C0010FF
:10188000B04E0010984E0010E04E0010B84E001000
:1018900000BEFDE710B5FFF7FBFF000010B582B0FA
:1018A0000C001900002A0CD0084B002A0BD0019222
:1018B000009323000200064802F0E2FD0120FFF73A
:1018C000E7FF044BF1E7034AF1E7C046604F001021
:1018D000704F00106C4F001070B52B4B2B4A1A60E4
:1018E0002B4B2C4A1A602C4B9A682A4B9343FAD103
:1018F0002A4C01E008CC9847294B9C42FAD300F0CF
:10190000FDF8234B274A1A60234B9B68DB43DB011E
:10191000FAD1254B40229A675A671A67DA66234C38
:1019200009E0234B234A83212348FFF7B7FF200018
:10193000FFF782FD0834214B9C4209D22368002B1B
:10194000F5D0012BEDD12000FFF783FD0834F2E73D
:101950001B4CA1681B4DC022280002F049FCA56069
:10196000FEF781FC002800D000BEFEF78DFE00F0DF
:1019700041FBFFF773FA144C01E008CC9847134B76
:101980009C42FAD370BDC04600E00040BFCDFBFED4
:1019900000F00040FE7F3C0000C00040A006002098
:1019A000B0060020FFFFFF0100F001409806002074
:1019B000C44F0010A04F0010E44F0010A0060020FC
:1019C00000ED00E000000020B0060020B40600207A
:1019D0000FB400B583B0084802F020FD049B002B33
:1019E00007D005A90191180002F028FD034802F074
:1019F00015FD0120FFF74CFFB04F0010C04F001045
:101A0000F0B5DE46574680B583B007000E0092461B
:101A10000A9A93424CD3190E01911B0218000093AD
:101A20000A9A002301F0C6FC05007B00DB199C002C
:101A30002D4B9C4664446368834200D260603B1F28
:101A4000DBB29B46012B39D9C0239B012343802263
:101A500012011A60BB00254A9958002905D0506927
:101A600001F066FC01300138FDD153465B0122686C
:101A70005340E022134080225201224313605B4610
:101A8000012B26D980239B012343802212011A6057
:101A900065602A0000230098019901F08BFCBF00CB
:101AA000124BF850012003B00CBC92469B46F0BD8F
:101AB0000F4B104A2D211048FFF7F0FE012EC3D125
:101AC000C0239B01234303221A60A368DB07FCD5D4
:101AD000CBE72168714003230B401360A368012208
:101AE000B2401A42FAD0CDE700800040EC07002057
:101AF00034500010245000104850001030B583B00E
:101B00000C2000F011FBFEF7B5FD00280DD00023DE
:101B100004E099002D4A2E4888500133092BF8D94A
:101B20002A4B2C4A5A6203B030BD2B4B00229A67D5
:101B300000F002FB294B01221A60274B5B6C012B42
:101B4000FBD1274B03221A60234B9B6B012BFBD14C
:101B5000022400940533234A0121234800F058FA57
:101B600000940523214A0121214800F051FA214B1C
:101B70000093002202210420FFF742FF1E4D009532
:101B80002B00002201210520FFF73AFF104C0094A2
:101B90002300002200210720FFF732FF00942300DA
:101BA000002200210820FFF72BFF0A4B009323009F
:101BB000002200210920FFF723FF00952B000022BF
:101BC00000210620FFF71CFFADE7C046EC07002010
:101BD000006CDC021BB70000008000403CB00040FD
:101BE00030B00040002F68590080024000389C1C33
:101BF00000C00240001BB700405973078000014B32
:101C0000C0587047EC070020074B9B6810308000DD
:101C10001950BFF35F8FBFF35F8F044B0021196032
:101C200082F310887047C04600ED00E0240100D028
:101C300010B5091A04394808090B05D14005400DB3
:101C4000044B184380B210BD034B044A8B21044857
:101C5000FFF724FE00E0FFFF7C520010A4500010AC
:101C60008C52001010B5091A04394C08090B08D120
:101C70004905490D064A11430180064B2343438021
:101C800010BD054B054A93210548FFF707FEC046E6
:101C900000F0FFFF00F8FFFF7C520010B050001072
:101CA0008C52001001238340034A10681840431EE1
:101CB0009841C0B27047C04600E100E0002902D15F
:101CC000034B18607047034B1860034B1860F9E72B
:101CD00080E100E080E200E000E100E010B50123D7
:101CE00083401800FFF7EAFF10BD0000024B9B681D
:101CF00010308000C058704700ED00E070B504005F
:101D00000D00EFF3108672B60C4B1B68002BFBD056
:101D1000BFF35F8F2000FFF7E9FF094B984201D026
:101D2000A84205D1320029002000FFF76DFF70BDE9
:101D3000044B054A6E210548FFF7B0FD240100D091
:101D4000CD01001044520010885000108C52001039
:101D5000F0B5CE4600B584B001900D00EFF31086CB
:101D600072B65A4B1B68002BFBD0BFF35F8F584BEA
:101D70009A68019C1034A300D758564B9F4200D15B
:101D80009FE0AF4200D19EE00297534BFB1A2F2BEE
:101D900008D9320039000198FFF736FF04B004BCBF
:101DA0009146F0BD0198FFF77DFF03900021019857
:101DB000FFF794FFBFF35F8FFEF755FA002801D0BD
:101DC00084421AD10123029C9C4344492300424A85
:101DD0009B1A5B415943090D4BB29C460023A168F5
:101DE000A94212D00622A256002A0DDB53009B18EE
:101DF0009A002300384CA418F1E71E21384B394AC9
:101E0000FF313948FFF74AFD2300A94252D106228B
:101E1000A2569146002A38DB52004A4491002E4BCC
:101E20005B189A68A260DA79E27106229A56A2716A
:101E30009B795BB2002B12DABD200002A0804B46DA
:101E40005B004B449A00244B9B18284A11789971E7
:101E50004B46137003990198FFF740FF99E7201D47
:101E60001D4A8B181A1D9B88D90A1C2907D15905B0
:101E70004915023149005118FFF7DAFEDEE71C4B25
:101E80001C4A99211848FFF709FD00280DD1002BA5
:101E900009D0FF229A71184A9A80144B1A78A271BD
:101EA00062461A70D6E70B4FF7E7201D1349FFF77C
:101EB000D9FECFE7A921124B0A4A49000A48FFF789
:101EC000EDFC044F65E7034F63E7C046240100D0F3
:101ED00000ED00E0CD010010DC010020AAAA000006
:101EE00018520010D85000108C52001089080020A1
:101EF000CC510010C850001000BDFFFF160200209A
:101F00003C520010F8B50400012606432D4BF31A8D
:101F10002F2B28D8FEF7A7F900282BD0EFF3108736
:101F200072B6294B1B68002BFBD0BFF35F8F274D88
:101F300022002449521A524155432D0D6DB2244BB3
:101F40009B6880001B58B3421BD00023032B32D860
:101F50005A00D21891001B4A5218927952B2AA42E2
:101F60001FD00133F2E778211A4B1B4AFF311B487F
:101F7000FFF794FCBD211A4B174A49001748FFF799
:101F80008DFC134B9B68174A1A50174B1A78A27195
:101F90001D70BFF35F8F0C4B00221A6087F310880F
:101FA000F8BD08495A00D618B0000818FF268671F7
:101FB0000E4B8380E9E78C210D4B074AFF31074820
:101FC000FFF76CFCDC010020240100D0AAAA00006D
:101FD00000ED00E0E4510010EC5000108C520010B5
:101FE0000C520010CD0100108908002000BDFFFF39
:101FF000B04E00100023044A03E00449116001338D
:102000000432072BF9D9704700E400E0808080801B
:10201000F0B583B00400019117001E000C2001F000
:1020200087F905004201121A93019B1ADB001B1865
:102030009901380001F07CF90200103A98235B0006
:102040009A4232D8731E062B35D8089B013B062BCB
:1020500031D8089B9E4234D33F09AF4237D3330473
:10206000089A16031E432368002B36DB244B9C4240
:1020700042D080214901234B1960234B1960234A28
:1020800092680B009343FAD1019B2360A060221D4C
:10209000C0239B01134321221A602268002AFCDA24
:1020A000E66008221A6003B0F0BD194B194A1621E8
:1020B0001948FFF7F3FB194B164A19211648FFF789
:1020C000EDFB174B134A1F211348FFF7E7FB154B96
:1020D000104A22211048FFF7E1FB22683F231340FA
:1020E000019A9342C2D1A3681B051B0D8342BDD147
:1020F000E368002EBAD1D6E780218901BBE7C0464C
:1021000000C0024000E0004000F0004000C000407D
:10211000D4520010C8520010F05200102C5300107E
:10212000785300109053001080239B001843014BFC
:10213000D862704700800540064BAA2212011A603F
:102140002F22DA60044B054A1A60024B5B68002BB1
:10215000FBDA7047004002400060024000B0FA0025
:10216000704710B5002802D00B684968984710BD29
:10217000002307E09A00D3185A004B1C03600B7829
:102180009B18303B01680A78303AD2B2092AF1D95B
:1021900018007047F0B5D6464F464646C0B582B0E7
:1021A00005000091904601930A9B99460B9C0C9E5A
:1021B0000D9B9B0712D04E460C9B994618E0541C71
:1021C000019B00992020A84701372200B742F6D38F
:1021D00054460C964E460C9B994609E02700A246B1
:1021E000F4E7013C571C305D019B0099A8473A0079
:1021F000002CF6D14E460D9B9B070AD5474605E0BD
:10220000541C019B00992020A8472200D31BB342F5
:10221000F6D3100002B01CBC90469946A246F0BD11
:10222000F0B5CE46474680B587B0049205930E9E22
:102230000F9C10AD2B789946129F139B149DAA07F3
:102240001CD4002B0CD0EA070AD54A46002A02D13A
:102250000C322A4204D0013B02E0302232550134D4
:10226000BC4205D21F2CF8D902E03022325501348D
:10227000EA0703D59C4201D21F2CF6D9EA0615D5F0
:102280006A0505D4002C03D0BC421CD09C421AD055
:10229000119A102A23D0119A102A28D0119A022AB2
:1022A0002DD01F2C02D83027375501341F2C2FD8A2
:1022B0004A46002A29D16A0737D42A0728D5202779
:1022C0003755013424E0671E002F06D0119A102ADA
:1022D00001D03C00DCE7023CDAE73C00D8E7AA0684
:1022E000D9D41F2CD7D8782737550134D9E7AA0677
:1022F000D4D51F2CD2D8582737550134D1E71F2CFD
:10230000CFD8622737550134CBE72D273755013415
:102310000395029301940096059B049AFFF73AFFF8
:1023200007B00CBC90469946F0BD2B2737550134B9
:10233000EEE7F0B5C64600B594B0089009910A9250
:102340000B931AAB10CB1B7898461F9D002C01D124
:1023500010239D438027FF002F4016D0002C20D053
:10236000002712E0AA061AD54121C918C9B20A39B4
:10237000C9B27E1C0CABD9551C99200000F0D8FFC7
:10238000041E0FD01F2E0DD837001C99200000F01E
:10239000CFFFCBB2092BE5D83033D9B2E9E76121C1
:1023A000E3E7002606951E9B05931D9B04931C9B4B
:1023B00003934346029301960CAB00930B9B0A9A3E
:1023C00009990898FFF72CFF14B004BC9046F0BDA3
:1023D000F0B5D6464F4680B599B00C900D910E924F
:1023E0000F93209C219D22AB1B789A46249B0A9335
:1023F000259B0B93289B994623002B4303D1103335
:102400004A469A4391468026F6004B461E4007D026
:1024100023002B4331D0002637004E4609941BE0A1
:1024200037004E46099417E0B20621D54122D21852
:10243000D2B20A3AD2B27C1C10ABDA550A9A0B9B84
:102440000998290000F0B6FF09900D000B00034326
:1024500015D01F2C0ED827000A9A0B9B099829002B
:1024600000F0A8FFD3B2092BDED83033DAB2E2E7AE
:102470006122DCE72700B14603E0002701E02700E6
:10248000B1464B460693279B0593269B04930A9BD4
:10249000039353460293019710AB00930F9B0E9A40
:1024A0000D990C98FFF7BCFE19B00CBC91469A46EA
:1024B000F0BD0000F0B5DE4657464646C0B592B0C6
:1024C00008900691099207931A9C1B9D22002B00ED
:1024D0002000290001F0FDF9002800D0EAE00122E7
:1024E0005242D34B2000290001F0EEF9002800D021
:1024F000E0E001225242CF4B2000290001F0CEF94A
:10250000002800D0D6E0002200232000290001F09E
:10251000C5F9002800D0E3E022002B000A920B93BB
:102520008023DB001E9A1A409246131E01D1063307
:102530001C930A980B9902000B000C920D93030058
:102540000A00024300D1D3E00A00100D4005400DFF
:10255000B94EB44660441203120B1E00B74B13432E
:102560001F0001F0C9F9B64AB64B01F054F9B64A5A
:10257000B64B01F029F90C900D910022B44B3000BC
:10258000390001F018F9B34AB34B01F044F90200E5
:102590000B000C980D9901F017F901F0C5F9804670
:1025A00001F0AAF9AD4AAE4B0C900D9101F033F950
:1025B0000022AC4B01F008F901F0B6F90700AA4A75
:1025C000AA4B0C980D9901F026F90C900D9138004A
:1025D00001F092F9A64AA74B01F01DF902000B0089
:1025E0000C980D9901F0E7F802000B001090119182
:1025F00001F011F90E900F919F4BFB181B050D93E5
:1026000000230C93109E119F32003B0030003900D4
:1026100001F0DAF81090119132003B000020802187
:10262000C90501F0C8F806000F000022934B0E9870
:102630000F9901F0D2F80022914B01F0C5F8020089
:102640000B000E980F9901F0C8F800228D4B01F095
:10265000BBF802000B000E980F9901F0BEF80200C3
:102660000B003000390001F0AFF802000B001098A9
:10267000119901F0B2F80022704B01F0A5F80C9A04
:102680000D9B01F0C8F806000F000C900D910A9AFE
:102690000B9B01F019F900282CD001235B429C46CA
:1026A000E0440022764B3000390001F096F80C909F
:1026B0000D911FE01E9B04931D9B03931C9B029393
:1026C00022002B0000920193079B099A0699089813
:1026D00000F002F912B01CBC90469A46A346F0BD29
:1026E0000A9480231B069C46AC4463460B9317E771
:1026F0000023984643466333C62B22D804271E9BEB
:102700001B052AD50C9A0D9B1900114311D05E4A66
:102710005E4B0A980B9901F0CFF8002800D1BBE07E
:1027200000225B4B0A980B9901F0B8F8002800D101
:10273000B2E01C9B434506DD42469E1A731E1C9365
:1027400003E00527DBE700231C938023DB001E9AB0
:102750001A431E920027002398461D9B9F4200D3D8
:10276000A6E0DB1B9B4602231E9A1A40924603D02A
:10277000002F01D000239B464346002B07D00C9A24
:102780000D9B0A980B9901F028F80A900B910022F2
:1027900000232000290001F081F8002800D08AE001
:1027A0003C4B1E9A134004935B4603931C9B02937D
:1027B0000A9B0B9C00930194079B099A0699089821
:1027C00000F08AF8002F00D184E71E9B9B0600D4FE
:1027D0007DE04524451C079B020006992000089CCB
:1027E000A0474046C21781185140C30F7A1E0520EA
:1027F00005900492002203920A3202920193009102
:10280000079B2A0006992000FFF793FD5346002BF3
:1028100000D15FE70200089D099C131B1D998B42A4
:1028200057D2561C079B06992020A8473200F4E790
:10283000FFFFEF7FFFFFEFFF01FCFFFF0000F03F16
:10284000FB799F501344D33FB3C8608B288AC63F9F
:102850000000F83F61436F63A787D23F71A37909F6
:102860004F930A400000E03F1655B5BBB16B0240E4
:10287000EF39FAFE422EE63FFF03000000002C4035
:1028800000002440000018402D431CEBE2361A3FA4
:1028900080842E41FFF7FFFF1C9B002B00D15CE7DB
:1028A0005346002B00D158E71C9B013B1C9354E777
:1028B00000239B4657E70A9C0B9D2200290080209D
:1028C0000006844661440B000A920B9368E7652476
:1028D00080E71000FEE6C046F0B5D646474680B514
:1028E00097B00690079108920993209F1E9A1F9B0C
:1028F0001000190000F0EDFF00282AD101225242F9
:10290000BB4B1E981F9900F0C9FF002830D101224F
:102910005242B84B1E981F9900F0D6FF00283AD0BB
:102920000423229A134032D0B34A002B31D103231F
:10293000229903912199029101930092099B089A8F
:1029400007990698FFF726FC17B00CBC90469A46EC
:10295000F0BD229B0393219B029303230193A74B7A
:102960000093099B089A07990698FFF713FCEBE779
:10297000229B0393219B029304230193A04B00937A
:10298000099B089A07990698FFF704FCDCE79D4A23
:10299000CBE70423CCE700229B4B1E981F9900F045
:1029A00093FF002817D10022984B1E981F9900F022
:1029B00075FF00280FD1002200231E981F9900F0F8
:1029C0006DFF002817D100239A46229B5B0500D497
:1029D0007DE000261FE0229B0493219B0393029736
:1029E0001E9B1F9C00930194099B089A07990698C7
:1029F000FFF760FDA8E71E9A1F9B0020002100F052
:102A0000DAFE1E901F9101239A46DEE70EAB3022BC
:102A10009A55013F01361F2E01D8092FF6D81E986E
:102A20001F9900F081FF040000F066FF02000B0018
:102A30001E981F9900F0BFFEFA00754B9B181A688C
:102A40005B680C920D9300F0E6FE0A900B9100F08B
:102A50008FFF050000F04CFF02000B000A980B9955
:102A600000F0A9FE0A900B9100226A4B00F02CFFA7
:102A700000282ED00135280000F03AFF02000B009C
:102A80000C980D9900F010FF002801D001340025AA
:102A9000002F2CD1200000F02FFF02000B001E9809
:102AA0001F9900F088FE00225A4B0A900B9100F00B
:102AB000F5FE002841D10022564B0A980B9900F0F0
:102AC00003FF002839D1E30737D5013435E0062765
:102AD0007FE700224F4B0A980B9900F0DFFE002899
:102AE000D6D1002D01D0EB07D2D50135D0E70A941D
:102AF0001F2E10D8013F0A21280000F019FC741C79
:102B000030310EAB99550A21280000F011FC051E4A
:102B100025D02600ECE70A9C04E00EAA302191554E
:102B20001F0001361F2E02D87B1E002FF5D11F2E4D
:102B300003D80EAB2E229A5501361F2E14D80A2127
:102B4000200000F0CDFB751C30310EAB99550A21E9
:102B5000200000F0C5FB041E05D02E00EDE7A046C6
:102B60000A9C4646DEE72E000323229A1340012BDF
:102B700016D01F2E06D85346002B28D00EAB2D2280
:102B80009A550136229B0393219B029301960EAB2B
:102B90000093099B089A07990698FFF7FBFAD3E67A
:102BA000219B002B0DD05346002B02D10C33134236
:102BB00007D0219B013B219303E00EAB30229A55B5
:102BC0000136219B9E42D4D21F2EF6D9D1E7229BFB
:102BD0005B0704D50EAB2B229A550136D2E7229B18
:102BE0001B07CFD50EAB20229A550136CAE7C04647
:102BF000FFFFEFFFFFFFEF7F8C550010985500108F
:102C00009C5500109455001065CDCD4165CDCDC1CA
:102C1000A85500100000E03FF0B5DE4657464E468E
:102C20004546E0B595B006000B91150013930029B9
:102C300000D1FCE20027139B1878002800D1F8E2AD
:102C4000252809D07C1C2B003A000B99B047139B18
:102C5000013313932700EEE70133139300241DE0A3
:102C60000B00303BDBB2092B37D92A293AD000239D
:102C70009A46139B1A782E2A44D000230C93139A59
:102C80001378683BD9B2122900D980E08B00D04973
:102C9000CB589F4601231C4301321392139A11789B
:102CA0000B00203BD8B21028DAD88300C948C3589B
:102CB0009F4602231C4301321392EFE704231C4377
:102CC00001321392EAE708231C4301321392E5E72D
:102CD00010231C4301321392E0E713A8FFF748FAD0
:102CE0008246C6E71E9B1A1D1E921B68002B04DB42
:102CF0009A46139B01331393BBE7022214435B42B2
:102D00009A46F6E78022D20014435A1C13925A784E
:102D10001300303BDBB2092B04D92A2A07D0002349
:102D20000C93ACE713A8FFF723FA0C90A7E71E9BC0
:102D30001A1D1E921B68002B04DB0C93139B01339E
:102D400013939CE70023F8E780235B002343511C87
:102D5000139152786C2A01D01C0018E0C0239B000C
:102D60001C430131139112E080232343511C139122
:102D70005278682A01D01C0009E0C0231C430131AD
:102D8000139104E080235B001C4301321392139BD8
:102D900018780300253BDAB2532A00D93DE29300AC
:102DA0008D4AD3589F4680239B001C4301321392C7
:102DB000EDE780235B001C4301321392E7E778289C
:102DC0000AD058283BD06F283CD062283DD0102331
:102DD0009C43063B9C4601E010239C46582837D074
:102DE000692803D0642801D00C229443630501D5DF
:102DF0000122944369282ED064282CD0A30500D545
:102E0000A5E0E30500D5BFE0630600D4D2E01E9A3A
:102E1000111D1E911168FF220A4005945346049328
:102E20000C9B0393634602930023019300922B00B3
:102E30003A000B993000FFF77CFA07002BE01023D3
:102E40009C46CBE708239C46C8E702239C46C5E77F
:102E500020221443C4E7A30521D4E30551D463061B
:102E600068D51E9A111D1E911168FF220A40D317C2
:102E7000D1185940D20F0594534604930C9B0393E9
:102E800063460293019200912B003A000B993000A7
:102E9000FFF74FFA0700139B01331393CBE61E9BFA
:102EA000DA1D07218A43110008311E911168536809
:102EB0009846DB1710931193109A119B100048400D
:102EC0000E901900404641400F910E980F99801ABC
:102ED00099410E900F914346DA0F08945346079399
:102EE0000C9B069363460493002305930292009083
:102EF00001912B003A000B993000FFF769FA0700A7
:102F0000C9E71E9A111D1E911268D317D118594096
:102F1000D20F0594534604930C9B0393634602938C
:102F2000019200912B003A000B993000FFF701FA53
:102F30000700B0E7230605D51E9A111D1E91002338
:102F4000D25E94E71E9A111D1E9112688FE71E9B98
:102F5000DA1D07218A43110008311E915368126857
:102F60000092019300220894534607930C9B06930A
:102F700063460493059202922B003A000B993000AD
:102F8000FFF726FA070086E71E9A111D1E911368A7
:102F900000930594534604930C9B0393634602935A
:102FA000002301932B003A000B993000FFF7C1F981
:102FB000070070E7230606D51E9A111D1E911268A0
:102FC0001204120C29E71E9A111D1E91126824E7A3
:102FD000AC530010F85300103C54001046281AD08F
:102FE0001E9B0733072293431A0008321E921A6869
:102FF0005B68009201930494534603930C9B0293E5
:103000002B003A000B993000FFF766FC0700139B7A
:10301000013313930FE620231C43E1E7672801D017
:10302000472802D180231B011C43452801D0472893
:1030300001D120231C431E9B0733072293431A0010
:1030400008321E921A685B680092019304945346FA
:1030500003930C9B02932B003A000B993000FFF76F
:1030600029FA0700139B01331393E4E5022323405D
:10307000994622D0012398461E9B1A1D1E927C1C45
:1030800018782B003A000B99B0474B46002B1AD109
:10309000139B013313932700CDE5571C0C9B0B9911
:1030A0002020A84723003A005C1C9E42F5D8B24677
:1030B0001700A0462E000C9DDEE701233A000C9578
:1030C00035005646F0E7220043460C95350056463B
:1030D00006E0571C0C9B0B992020A84723003A00C0
:1030E0005C1C9E42F5D814002E000C9DD0E71E9B60
:1030F0001A1D1E921B689B460C9B002B21D101229E
:1031000052425B4601E001330A001978002902D0DF
:10311000511E002AF7D15A469B1A98468023DB009D
:103120002340994603D00C9B984500D9984602232A
:103130002340129307D03A005C4637004E460D9567
:103140001FE00C9ADDE73A004346370056460D95DE
:1031500006E0551C0D9B0B992020B84723002A0040
:103160005C1C9E42F5D8B2463E00A0465C46370045
:103170004E4606E00C930134551C0D9B0B99B84745
:103180002A002078002805D0002EF4D00C994B1E80
:103190000029EFD13E0017000D9D129B002B03D19B
:1031A000139B0133139346E543460C953500564671
:1031B00006E0571C0C9B0B992020A84723003A00DF
:1031C0005C1C9E42F5D817002E000C9DE8E72123D9
:1031D00023431E9A111D1E91126800920593082325
:1031E00004930C9B039310230293002301932B0061
:1031F0003A000B993000FFF79CF80700139B01334E
:10320000139318E57C1C2B003A000B992520B0473E
:10321000139B0133139327000DE57C1C2B003A0010
:103220000B99B047139B01331393270003E5094E15
:1032300000E5AF420CD36A1E2B000B990020B0476B
:10324000380015B03CBC90469946A246AB46F0BD4E
:103250003A00F1E76121001000B585B002900391BA
:103260000121009313004A4202A90248FFF7D4FC4F
:1032700005B000BD6321001001480421014B18472F
:1032800030020020A932001010B5010018231B885D
:1032900014221088984710BD10B5010018231B8810
:1032A00016221088984710BDF0B5C64600B5070035
:1032B0000E0000250123984600E00135B5420AD2F0
:1032C000AC003C192068FFF7DFFF20600028F4D134
:1032D00000239846F1E7404604BC9046F0BD00004C
:1032E000124A936F9B0815D29066D166002905D0CB
:1032F000FFE7FFE7FFE7516F106F704704B58021CC
:103300000906C2175140002800D0C84301F004FB51
:10331000002104BDF0B5146E556E576F166FFFF7A0
:10332000E3FF1466556657671667F0BD000000D0CE
:10333000114A936F9B0813D210665166002905D07D
:10334000FFE7FFE7FFE7516F106F704704B50028F4
:1033500001D00020C04301F0DFFA002104BDC046C7
:10336000F0B5146E556E576F166FFFF7E5FF1466D4
:10337000556657671667F0BD000000D094464E4A68
:10338000926F9208624601D230E0C046F0B54A4ED4
:10339000B56F6D08FCD3346E756E776F366F00F0C5
:1033A00025F89446444A1466556657671667624680
:1033B000F0BDC0469446404A926F9208624601D2E0
:1033C00058E0C046F0B53C4EB56F6D08FCD3346E86
:1033D000756E776F366F00F04DF89446364A146676
:1033E0005566576716676246F0BDC046002B24DB62
:1033F00011D000293EDA00B5C943404200D1013165
:1034000000F038F8C943404200D10131DB43524259
:1034100000D1013300BD002AEBD1002801D10029E1
:1034200005D00020C90FC90701D1C043410800B52C
:1034300001F06AFA0022002300BD00B500290ADB72
:10344000DB43524200D1013300F014F8C94340423B
:1034500000D1013100BDC943404200D10131DB43FD
:10346000524200D1013300F005F8DB43524200D153
:10347000013300BD002923D1002B18D1002A0CD024
:10348000BC460D4F38667A6600210023FFE7FFE750
:10349000FFE77A6F386F67467047002801D007480A
:1034A000010000B501F030FA0022002300BD020047
:1034B0000B00002000217047000000D0FFFFFFFF3D
:1034C000002B00D0BFE0130C28D1002AE7D080B435
:1034D000114F39667A66FFE7FFE730B4040C7B6F63
:1034E000396F1B0423433B667A66FFE7FFE7FFE77C
:1034F000C04684B27B6F3D6F1B0423433B667A66F4
:10350000FFE7FFE7C04600232C042D0C7A6F386FCD
:1035100000196941B0BC7047000000D0F0B5944676
:103520000025140E01D112020835140F01D1120129
:103530000435940F01D192000235D40F01D152000D
:103540000135D40B0134254F7C66254C3C660E0CAE
:1035500093B2FFE7FFE7FFE73C6F6643360C770364
:10356000BE467343DF0B5B04C01AB941130C7343AF
:10357000DB18C91ACE086643360CB64493B27343BF
:103580001F0F1B01C01AB941130C73431F0B1B05FE
:10359000C01AB941860D8F023E436643360C092D91
:1035A00024DB520A7243801A7703460A6643360CBC
:1035B00016235B1BDE40DF40BF1964466643821B57
:1035C0007046043506330100D940A840C01900D325
:1035D0000131A24206D20023F0BD0000000000D05D
:1035E000FFFFFFFF121B0130F3D3F1E709277F1B19
:1035F000FE406446A2B27243801A00D20139220C06
:103600007243130C1204821A99410B007046043560
:1036100013370100F940A840801900D30131002B75
:1036200002D1A2420AD2F0BD013000D30131121BF7
:10363000FAD2013BF8D1A24200D2F0BD013000D352
:103640000131121BF7E7F0B51C0C00D080E00CB480
:1036500000251C0A04D11B02160E33431202083542
:103660001C0B04D11B01160F3343120104359C0BB4
:1036700004D19B00960F334392000235DC0B02D13C
:1036800092185B4101351C00971864410134464F84
:103690007C66464C3C660E0CFFE7FFE7FFE7C04642
:1036A0003C6F6643360C7703BE4697B27743C01B28
:1036B00000D20139C01B00D201399FB27743C91B28
:1036C000C91B170C77437E04FF0B801BB941CE0842
:1036D0006643360C0C2D33DBB644120B1F053A4300
:1036E0001B0B97B27743C01B00D201399FB27743BF
:1036F000C91B170C77433E043F0C801BB941860D54
:103700008F023E43664329277F1BFE400C3D7746D0
:10371000AF40BF1930BCA2B2ABB272437343801A40
:103720009941220C7243130C1204801A9941020031
:103730000B000137001BA941F9D2781E0021F0BD12
:103740000C277F1BFE4077467F0BAF40FF19E0E759
:1037500000245D1C07D0144F7D663966FFE7FFE744
:10376000FFE7FFE73C6F95B29EB265436643401B9F
:10377000B141150C1E0C6543664336042F0C3E43C5
:103780002D04401BB141994204D202000B002000DD
:103790000021F0BD01D19042F7D3801A9941013444
:1037A0009942F2D3F6E70000000000D0FFFFFFFFD0
:1037B00048404140484018B41B4B5B68FC460193AD
:1037C00008BD04DF8B3A001018B4174B1B68FC4689
:1037D000019308BD00DF953A00109446134A926F9A
:1037E000920809D2624618B40F4BDB68FC4601937D
:1037F00008BD0CDF4D3D00100C4AF0B5146E556E3F
:10380000576F166F6246FFF7EEFF084A146655665B
:1038100057671667F0BD18B4034B9B68FC460193CD
:1038200008BD08DFF13B001090080020000000D028
:10383000FFB550404240504059404B40594000E095
:10384000FFB5154F4C00640D03D0BC4204D10C03EE
:1038500014D80020090D09055C00640D03D0BC429A
:1038600004D11C030AD800221B0D1B0501264B4066
:1038700009D44B4003D58B4200D18242FFBD99420F
:10388000FCD19042FFBD0B43DB1803431343F5D03B
:10389000C9434918FFBD0000FF07000000B5FFF74E
:1038A000CFFF804100BDC04600B5FFF7C9FF01D979
:1038B000002000BD012000BD00B5FFF7B9FF01D910
:1038C000002000BD012000BD00B5FFF7B1FF804121
:1038D00000BD012040054A00121804D85A001218F1
:1038E00001D8002070470120704700207047000079
:1038F0000021002805D17047C1174840401AFAD06E
:10390000C90713B5064B1B6898470CBC441CA24062
:103910001005120B0349091B09051943114310BD7A
:103920006C0800201F04000010B54C00620D8023BD
:10393000D218DB00D21A5B057E2A10DD9E3A13DA1C
:10394000CC170903490819435242D140640001349D
:103950001532202A05DAD0400843604310BD00200C
:1039600010BD0846604310BDC80FC018013810BD17
:1039700018B4044B5B6AFC46019308BD24DFFD3E8E
:10398000001000009008002070B513231C78012C53
:1039900014D0012C14DC022C02DC1F4A1F4B9A6449
:1039A0001F48FFF771FC1F4B186070BD99001A4843
:1039B0001A4A885001331F2BF8D9EAE70023FAE7A7
:1039C0001948FFF769FC05001848FFF765FC023845
:1039D00003789B007F2B19DD802229000F4800F01F
:1039E00007FC022CD7D1124B1A88B5231B029A422E
:1039F00009D1104B1A88104B9A4204D10F4B1A88E8
:103A00000F4B9A42C7D00020FDF7E2FF0D4B0E4A44
:103A100032210E48FDF742FF513A00109008002075
:103A20004C3300006C080020534400005346000053
:103A300054380000D8380000494600009C38000087
:103A400059460000F85500109C56001058560010BA
:103A500007B56046002800D100BE01880A0A02307E
:103A6000DF2AFAD1C9B2820804D302884088000450
:103A7000104300E00068024A5050039007BD000068
:103A8000900800200FB403BC0CBCF0B50124E4077F
:103A9000634000E0F0B50C0DCF0F661E3605891BA4
:103AA000640503D3C943404200D30131640D03D000
:103AB000661CF60A07D0E41B00207F00791C8907EA
:103AC0008912803C24031D0DDF0F6E1E36059B1BE3
:103AD0006D0503D3DB43524200D301336D0D03D098
:103AE0006E1CF60A07D0ED1B00227F007B1C9B0793
:103AF0009B12803D2D032F1B661B58D4A446202EFD
:103B000046DA20371400BC401D00BD40F24033416E
:103B10002A4380185941CB0F05D0C943C043002226
:103B200064425041514162464D0D28D10D0D07D1DF
:103B300000281FD0241940414941013A0D0DF9D008
:103B4000640006D3013000D30131002C01D14008BC
:103B50004000013A0BD4941CE40A04D1120511442C
:103B6000DB071944F0BDD907204B194300E0D90702
:103B70000020F0BD0029DDD1002CDBD1F0BD0132E9
:103B8000C6074008CD0728434908002EE1D0D9E7F1
:103B90003C2E29DA203E40371400BC4000D00124DE
:103BA000F24014431A00BB401C43D317ACE7AC46A9
:103BB000202F08DA20360400B4400D00B540F8404C
:103BC00039412843A5E73C2F0CDA203F403604005A
:103BD000B44000D00124F84004430800B1400C4335
:103BE000C117EAE710001900002494E70000F07FF5
:103BF000F0B50C0D661E3605891BE60A6405640DDA
:103C000002D0651CED0A04D0002001210905803C8A
:103C10002403A4461C0D671E3F05DB1BE70A640551
:103C2000640D02D0651CED0A04D0002201231B059F
:103C3000803C24037740644497B484B296B27443C2
:103C4000070C7E43150C6F4380B26843361802D3CD
:103C5000012000043F183004350C00197D418446D2
:103C600088B29AB250430C0C62431F0C7C438EB254
:103C70007E43921902D301263604A4191604170CA8
:103C80003618674101BC81B29AB25143040C6243B9
:103C90001B0C5C4380B25843121802D3012000046D
:103CA00024181004130C401863412D185E410020A5
:103CB000474106BC88B293B258430C0C6343120CC4
:103CC000544389B251435B1802D30121090464189B
:103CD00019041A0C091862416D1856410020474119
:103CE00018BCF902720D1143F0026A0D1043ED0287
:103CF0000A0D03D16D1940414941013B124E9B1BF6
:103D00007600B3420ED26D0007D301300026714118
:103D10006646354301D1400840001B05C918E40739
:103D20002144F0BD0BDA013306D1013004D1013159
:103D30004F0D01D04908F2E7E1070020F0BD013640
:103D400031050020EBE70000FF030000F0B51C0D7B
:103D5000671E3F05DB1BE70A6405640D02D0661C85
:103D6000F60A04D0002201231B05803C2403D02541
:103D70002D060026F6432E661E096E66CE0FF61936
:103D8000B44649004F0D02D07E1CF60A03D0002035
:103D90000021403F3F033E1BB600B444013F7F0576
:103DA000C91B49082E6F013676089C02950D2543E4
:103DB0007543ED137543AD1301356D10F603761B96
:103DC0000CB4CC02450D2C43A2B2B3B25A43270C1B
:103DD0007B43350C6F43A4B26C431B1902D30124FF
:103DE00024043F191C041D0CA4187D4124196D41A5
:103DF000009A91B2ACB26143170C7C432B0C5F4329
:103E000092B25A43A41802D301221204BF1822040A
:103E1000230C52187B41019C6C431B19520ED90193
:103E20000A434401A01A81B2B2B2514303145A4367
:103E3000360C734387B27743D617D21900277E41D9
:103E400036049B191704160C7F185E417316ED1883
:103E5000F301002680337541A90F06D16400690A79
:103E6000E8055B0A184309D22FE00422944480330A
:103E70007541A90AA8059B0A184326D34041494128
:103E80002404009A019B0D005543641B4343E41A2C
:103E900095B286B27543170C7E43030C5F4392B212
:103EA0005A43B61802D301221204BF183204330C4D
:103EB00052197B4152429C41002C02D40022013015
:103EC00051414008CA071043490802B06246D7076B
:103ED0009210084BD218084B9A4203D21205891847
:103EE000C919F0BD0020002A01DC3900F0BD013302
:103EF0001905F5E7FD030000FE070000002200B5EC
:103F0000203200F004F8080000BD000000220B156C
:103F10000AD410B5944600F031F81414013400DAD4
:103F20000021CB17144C2047002000217047624429
:103F3000343A0CD40C2A07DA0400914090405242E3
:103F40002032D440214310BDD843D94310BD203284
:103F500007D40C469440524220321141D0402043B5
:103F600010BD0800C917203203D45242203210413C
:103F700010BD1800190010BD2F3F00100A0DCC0F06
:103F8000531E1B05C91A520503D3C943404200D32F
:103F90000131520D03D0531CDB0A07D0121B002045
:103FA0006400611C89078912803A1203014BD21AFE
:103FB00070470000FF03000051434343C9188C467B
:103FC000110C83B24B4310B4040C614392B280B223
:103FD000504362431C041B0C001910BC59411304CC
:103FE000120CC018514161447047000048404140E4
:103FF000484000239C46114B5B68184700239C46B1
:104000000E4B1B6818470E4A936F9B0804D200237F
:104010009C460A4BDB681847F0B5146E556E576F17
:10402000166FFFF7F4FF064A146655665767166762
:10403000F0BD00239C46014B9B6818479009002067
:10404000000000D0491A002808D108467047000037
:10405000C10FC90700D54042002817D0F44603B469
:104060000B4B1B68984706BC81409E38404280310C
:1040700007D20B0607D04900490AC0051043084380
:1040800060470130F8E7490A8902F5E77047000008
:104090006C08002000239C46014B5B6A1847000017
:1040A0009009002070B513231D782A48FFF7F4F813
:1040B0000400012D11D0012D09DDA31E1B789B00EA
:1040C0007F2B40DD80222100234800F091F8234817
:1040D000FFF7DAF8224B186070BD542201001E4829
:1040E00000F086F81F4B1A881F4B9A421CD1A72359
:1040F0009B011A881D4B9A4216D11D4B1A881D4BE5
:104100009A4211D11C4B1A8894239B019A420BD1DD
:104110001A4B1A881A4B9A4206D11A4B1A681A4B34
:104120009A4201D1152307E01848FDF751FC990088
:104130001748094A885001331F2BF8D9144A064BF7
:104140001A62DA61B7E7134B134A42211348FDF7AD
:10415000A5FBC04653460000900900204C330000E8
:104160006C080020EE290000C40F0000C20D000002
:10417000962B0000C0B50000182B0000CC2A0000D0
:1041800010B50000FC2C000051ED87646C4F00104E
:10419000A1410010B056001028570010E45600103E
:1041A00007B56046002800D100BE01880A0A023027
:1041B000DF2AFAD1C9B2820804D3028840880004F9
:1041C000104300E00068024A5050039007BD000011
:1041D0009009002001480421014B184740020020AB
:1041E000A9320010014B1B68184700004002002054
:1041F000014B5B68184700004002002010B50C001E
:10420000036811002000984710BD0000F8B50600B3
:104210000D001700437C002B23D1036811002800F8
:104220009847F8BD337C10E002211748336898475F
:10423000601C0134BC4217DA002CF3DD2B19013B62
:104240001B780D3B5A425341DBB22A5D0A2AF0D15A
:10425000002BEED1A042E7DA211A281833689847DC
:10426000E2E700240020E5E7B84203DA391A28180B
:1042700033689847002FD4DDED19013D2B780D3BB5
:104280005A4253413374CCE7B057001070B5050063
:104290000368002B16D00C4B1C6805E0291D2A680A
:1042A0002000FFF7B3FFE468002C09D02368002B3F
:1042B000F9D0064B1B68002BF0D0A342F3D1EDE7F9
:1042C00000232B6070BDC046540800205808002011
:1042D00070B505000C000B68802B05D023685A1CB4
:1042E0002260E418257170BD0800FFF7CFFFF5E7E5
:1042F00010B582B0D0231B0600241C5701A9074823
:1043000000F012FB002806D1019B9C4203D0034819
:1043100000F012FB012002B010BDC046980600203C
:1043200010B5024800F0E8FA10BDC046980600201B
:10433000F0B5C64600B584B001900D0016001C0013
:10434000FFF7D6FF80466B1C05D0002C08D0194F14
:10435000194B1C6814E0019800F09AFA0500F4E784
:10436000164FF5E72A0001992000B847002E06D025
:1043700002ABD91D0A230B7001222000B847E46864
:10438000002C09D02368002BF9D00D4B1B68002BA3
:10439000E8D0A342F3D1E5E74346002B06D1681EDF
:1043A0008541E8B204B004BC9046F0BDFFF7B8FF09
:1043B000F5E7C046FD410010540800200D420010F2
:1043C000580800200C4B1A681300002B0BD08342B6
:1043D00002D01A00DB68F8E7002903D1DB68D3605C
:1043E0000023C36070470029FCD0002A01D0D060B0
:1043F000F8E7014B1860F5E75408002010B5064BAC
:104400001C6800E0E468002C04D06368002BF9D03D
:104410009847F7E710BDC0465408002070B5050066
:1044200000F036FA04000023012201002800FFF703
:104430007FFFFFF7E3FF200070BD000070B5A2B062
:1044400004000E00FFF754FF05008422002101A89C
:10445000FFF7C8FE3300220001A90848FEF7FCFE62
:10446000040001A8FFF712FFFFF7C8FF002D02D1DB
:10447000200022B070BDFFF753FFF9E7D1420010D2
:104480000FB400B583B004A901C90191FFF7D6FFAD
:1044900003B008BC04B0184710B500F07FF810BD99
:1044A000F0B583B0002606E06B469C1D2570002504
:1044B000002D1DD001368E4222DA124B1A68855D1E
:1044C000114BD3185C4263415B00104C1B5FAB4245
:1044D000EAD16B46DC1D0D2323700027002FE3D1AA
:1044E00093699B06FCD42378136001370134F5E708
:1044F00093699B06FCD42378136001350134D7E718
:1045000003B0F0BD840800200080FCBF8C080020B0
:10451000F0B583B0070000200BE0461C38180024DB
:104520006B46DD1D002C0FD06B4607331B780370E4
:104530003000884204DA094B1A689369DB06ECD52F
:10454000002809D003B0F0BD9369DB06FCD41368E2
:104550002B7001340135E5E70338F3E784080020C8
:1045600070B515001C000B4B1860FCF7EDF8002D22
:104570000ADA002C03DB02212000FCF733F80121CA
:104580000548FFF71FFF70BD02212800FCF72AF83D
:10459000EFE7C046840800205002002010B5064B0B
:1045A0001B78064B1B78E1210123002249020448B5
:1045B000FFF7D6FF10BDC046B0580010B458001029
:1045C000004003400523CB56002B03DB934201D070
:1045D000002010E0084B9C46604443425841800054
:1045E000064BC058097901238B40013B934018408A
:1045F00043425841C0B270470000D0AFD4070020FA
:1046000070B50A79202A17D8184B9C46604443425B
:1046100058418000164BC45801239340013B49790F
:1046200049B2002911DB08002025AA1A914219DCA1
:104630008B401C4206D170BD0E4B0F4A40210F48E3
:10464000FDF72CF901204042F5E72020801A0028D0
:1046500005DB1A0082401442EDD00138F7E7012053
:104660004042E8E701204042E5E7C0460000D0AF05
:10467000D407002028580010F45700105458001098
:1046800070B505000C001600FFF79CFF002801D054
:10469000002107E01548FDF79BF98B1912339B00A9
:1046A0005A51013123798B420FD923786278120253
:1046B0001A43A3781B041A43E3781B0613434A00EA
:1046C0009A5A530BE9D19219E7E701229A40130055
:1046D000013B074A944665446A425541B340054A46
:1046E000AD00A9580B43AB5070BDC0461458001024
:1046F0000000D0AFD4070020F8B505000E00FBF78E
:1047000089FF070031002800FFF77AFF041E09DB4C
:10471000020031002800FFF7B3FF3800FBF786FFE7
:104720002000F8BD0148FDF753F9C04614580010A9
:10473000F0B505AC26784D006D18EC000419DC349A
:104740002468A446002E01D01F2614E0002612E0A3
:104750005701A024640527434D006D18EC0004198F
:104760002500DC352F600D4D3543D8342560053BE1
:1047700005321F242240052BEAD89B0652011A431A
:104780004C006518EB00C3181D00DC352A60034A95
:104790001643D8331E6063462B60F0BD80E00000F6
:1047A000F0B5046801258D40AC430460002B34D083
:1047B0004D006D18EC0004192500C8351E682E60E8
:1047C00004355E682E6004359E682E60DB68DC343C
:1047D00023604C006518EB00D033C31880256D01B1
:1047E0002B4380252D061D601D60164B8B4083607A
:1047F00005680E1D01231F00B7403D430560056895
:104800000E000836B3402B4303601F231A40611883
:10481000CB00C018D8300260F0BD4C006418E30033
:10482000C3181C00C83480256D0225600434F825A7
:104830006D0225600434C0252D032560DC3300247F
:104840001C60C6E7010101010022034B1B68A8336D
:1048500018605A607047C04668020020094B10B5C6
:104860001C68094AA83420686168084BFFF7A4FB5C
:1048700001220023801859412060616048004008EF
:1048800010BDC046680200202D7F954C2DF4515874
:1048900010B5040083070AD00378002B23D003222D
:1048A00002E00378002B1CD001301042F9D10268DD
:1048B0000E4B0F49D31893430B420FD104300268BB
:1048C0000A4BD31893430B4208D104300268074BBC
:1048D000D31893430B42F1D000E001300378002B52
:1048E000FBD1001B10BD0020FCE7C046FFFEFEFE12
:1048F00080808080F8B5C04601B40248844601BC7F
:10490000604700BF5101002001B40248844601BC49
:10491000604700BF9D01002001B40248844601BCED
:10492000604700BF9D01002001B40248844601BCDD
:10493000604700BF0901002001B40248844601BC61
:08494000604700BFC100002028
:1049480028666F72776172642900000028626163CB
:104958006B77617264290000575332383132205323
:104968006D6F6B6520546573742C207573696E6761
:104978002070696E202564005D030010A0490010B6
:1049880009040010A849001035040010B4490010AB
:10499800CD030010C0490010536E616B6573210090
:1049A80052616E646F6D206461746100537061724E
:1049B8006B6C657300000000477265797300000036
:1049C800D049001004FF000021622311001442A402
:1049D8007570646174655F75735F73696E63655F35
:1049E800626F6F740000000070685F6765745F6EC7
:1049F8006F64650070685F6164645F6368696C64B4
:104A08005F6E6F646500000070685F696E73657241
:104A1800745F6E6F6465000070685F667265655FDD
:104A28006E6F6465000000006765745F656E747280
:104A3800790000006765745F656E7472795F6964F8
:104A48005F68696768000000616C61726D5F706F14
:104A58006F6C5F6765745F64656661756C74000090
:104A68006164645F616C61726D5F756E6465725FCD
:104A78006C6F636B00000000616C61726D5F706F3A
:104A88006F6C5F616C61726D5F63616C6C626163B6
:104A98006B0000002170685F636F6E7461696E73EC
:104AA8005F6E6F646528706F6F6C2D3E686561700E
:104AB8002C2072657573655F6964290075735F736F
:104AC800696E63655F626F6F74203C3D20494E5488
:104AD80036345F4D415800002F686F6D652F70693F
:104AE8002F7069636F2F7069636F2D73646B2F73F9
:104AF80072632F636F6D6D6F6E2F7069636F5F6286
:104B08006173652F696E636C7564652F7069636F77
:104B18002F74797065732E680000000072656D6FE0
:104B28007665645F6964203D3D206E6578745F69D1
:104B38006400000063616C6C6261636B00000000DC
:104B4800706F6F6C2D3E616C61726D5F696E5F7026
:104B5800726F6772657373203D3D206D616B655F91
:104B68007075626C69635F69642869645F68696706
:104B7800682C206E6578745F696429006964202652
:104B880026202170685F636F6E7461696E735F6E53
:104B98006F646528686561702C20696429000000CD
:104BA8006964202626206964203C3D20706F6F6C64
:104BB8002D3E686561702D3E6D61785F6E6F64652E
:104BC80073000000256C6C64202868692025303249
:104BD8007829000064656661756C745F616C617248
:104BE8006D5F706F6F6C5F696E697469616C697A0B
:104BF800656428290000000069642026262069646D
:104C0800203C3D20686561702D3E6D61785F6E6F58
:104C1800646573002F686F6D652F70692F70696305
:104C28006F2F7069636F2D73646B2F7372632F63BB
:104C38006F6D6D6F6E2F7069636F5F7574696C2F20
:104C4800696E636C7564652F7069636F2F7574691D
:104C58006C2F70686561702E680000007061726565
:104C68006E745F69640000006368696C645F6964FE
:104C780000000000706172656E745F696420213DF8
:104C8800206368696C645F696400000072742D3E7B
:104C9800616C61726D5F6964203D3D20696400004C
:104CA8002F686F6D652F70692F7069636F2F70693A
:104CB800636F2D73646B2F7372632F636F6D6D6FEA
:104CC8006E2F7069636F5F74696D652F74696D65A8
:104CD8002E630000417474656D7074656420746F90
:104CE80020736C65657020696E73696465206F66F2
:104CF80020616E20657863657074696F6E206861E5
:104D08006E646C65723B2075736520627573795F9C
:104D18007761697420696620796F75206D75737481
:104D28000000000068617264776172655F616C61A0
:104D3800726D5F7365745F746172676574000000FB
:104D4800486172647761726520616C61726D2025BB
:104D58006420616C726561647920636C61696D655A
:104D68006400000074696D65725F68772D3E696E36
:104D780074732026203175203C3C20616C61726D73
:104D88005F6E756D000000002F686F6D652F70698C
:104D98002F7069636F2F7069636F2D73646B2F7346
:104DA80072632F7270325F636F6D6D6F6E2F686103
:104DB8007264776172655F74696D65722F74696D6D
:104DC80065722E63000000006D757465785F657804
:104DD80069740000746F74616C0000002F686F6D57
:104DE800652F70692F7069636F2F7069636F2D73FA
:104DF800646B2F7372632F636F6D6D6F6E2F7069A5
:104E0800636F5F73796E632F6D757465782E6300B9
:104E18006D74782D3E636F72652E7370696E5F6C6A
:104E28006F636B006C6F636B5F69735F6F776E6541
:104E3800725F69645F76616C6964286D74782D3E71
:104E48006F776E65722900006D74782D3E656E74FB
:104E580065725F636F756E740000000070685F674D
:104E680065745F6E6F64650070685F6164645F633A
:104E780068696C645F6E6F646500000070685F72DB
:104E8800656D6F76655F616E795F68656164000066
:104E980070685F72656D6F76655F616E645F66727C
:104EA80065655F6E6F646500666F756E640000000F
:104EB8006E65775F7375625F7472656520213D204A
:104EC800686561702D3E726F6F745F6964000000E1
:104ED800726F6F745F6964002F686F6D652F7069FA
:104EE8002F7069636F2F7069636F2D73646B2F73F5
:104EF80072632F636F6D6D6F6E2F7069636F5F756F
:104F080074696C2F70686561702E63002170685F2A
:104F18006765745F6E6F646528686561702C2072C0
:104F28006F6F745F6964292D3E7369626C696E677F
:104F3800000000002170685F6765745F6E6F6465CC
:104F480028686561702C20726F6F745F6964292D01
:104F58003E706172656E74002C2066756E637469AC
:104F68006F6E3A2000000000617373657274696F98
:104F78006E2022257322206661696C65643A20667A
:104F8800696C6520222573222C206C696E652025AA
:104F980064257325730A000072756E74696D655F08
:104FA800696E6974000000000A2A2A2A2050414EBE
:104FB8004943202A2A2A0A000A00000031203D3DE0
:104FC800202875696E747074725F74296C2D3E7335
:104FD80070696E5F6C6F636B000000002F686F6D07
:104FE800652F70692F7069636F2F7069636F2D73F8
:104FF800646B2F7372632F7270325F636F6D6D6FA6
:105008006E2F7069636F5F72756E74696D652F724C
:10501800756E74696D652E6300000000636C6F63C4
:105028006B5F636F6E666967757265007372635F45
:1050380066726571203E3D20667265710000000051
:105048002F686F6D652F70692F7069636F2F706996
:10505800636F2D73646B2F7372632F7270325F638B
:105068006F6D6D6F6E2F68617264776172655F63D3
:105078006C6F636B732F636C6F636B732E630000CD
:105088006972715F7365745F6578636C757369764F
:10509800655F68616E646C65720000006D616B65C8
:1050A8005F6272616E636800696E736572745F62D5
:1050B80072616E63685F616E645F6C696E6B00003D
:1050C8007265736F6C76655F6272616E636800000B
:1050D8006972715F72656D6F76655F68616E646C29
:1050E800657200006972715F6164645F7461696C04
:1050F8005F746F5F667265655F6C6973740000004A
:105108006972715F68616E6465725F636861696E18
:105118005F667265655F736C6F745F686561642054
:105128003E3D203000000000767461626C655F6867
:10513800616E646C6572203D3D205F5F756E6861CD
:105148006E646C65645F757365725F697271000087
:10515800212828282875696E747074725F742976FE
:105168007461626C655F68616E646C657229202D7C
:1051780020282875696E747074725F742969727159
:105188005F68616E646C65725F636861696E5F73A6
:105198006C6F747329202D2031292573697A656F06
:1051A8006628737472756374206972715F68616EC2
:1051B800646C65725F636861696E5F736C6F742994
:1051C8002900000030783163203D3D20282A696E8F
:1051D8007374293E3E3131750000000069735F73B6
:1051E80068617265645F6972715F7261775F686137
:1051F8006E646C657228736C6F745F68616E646C42
:1052080065722900657863657074696F6E000000C7
:1052180021657863657074696F6E207C7C20657881
:1052280063657074696F6E203D3D206E756D202B2F
:105238002031360066616C73650000006375727218
:10524800656E74203D3D205F5F756E68616E646CAD
:1052580065645F757365725F697271207C7C206319
:10526800757272656E74203D3D2068616E646C6570
:1052780072000000212864656C7461203E3E203174
:10528800317529002F686F6D652F70692F706963FC
:105298006F2F7069636F2D73646B2F7372632F7236
:1052A80070325F636F6D6D6F6E2F686172647761C6
:1052B80072655F6972712F6972712E630000000058
:1052C800706C6C5F696E69740000000066626469E6
:1052D80076203E3D20313620262620666264697697
:1052E800203C3D20333230002F686F6D652F706988
:1052F8002F7069636F2F7069636F2D73646B2F73E1
:1053080072632F7270325F636F6D6D6F6E2F68619D
:105318007264776172655F706C6C2F706C6C2E6351
:105328000000000028706F73745F64697631203E56
:105338003D203120262620706F73745F64697631B2
:10534800203C3D2037292026262028706F73745F63
:1053580064697632203E3D203120262620706F7306
:10536800745F64697632203C3D20372900000000D4
:10537800706F73745F64697632203C3D20706F7380
:10538800745F6469763100007265665F6D687A20C3
:105398003C3D202876636F5F66726571202F20314F
:1053A80036290000682D00108E2D0010A62D001043
:1053B8008E2D0010482D00108E2D00108E2D0010FF
:1053C8008E2D00108E2D00108E2D00108E2D0010A9
:1053D8008E2D0010842D00108E2D00108E2D0010A3
:1053E8008E2D00108E2D00108E2D0010B22D001065
:1053F800C62C0010602C0010602C0010D02C00105F
:10540800602C0010602C0010602C0010602C001024
:10541800602C0010602C0010602C0010BC2C0010B8
:10542800602C0010B22C0010602C0010602C0010B2
:10543800942C0010043200101A3200101A32001096
:105448001A3200101A3200101A3200101A320010E4
:105458001A3200101A3200101A3200101A320010D4
:105468001A3200101A3200101A3200101A320010C4
:105478001A3200101A3200101A3200101A320010B4
:105488001A3200101A3200101A3200101A320010A4
:105498001A3200101A3200101A3200101A32001094
:1054A8001A3200101A3200101A3200101A32001084
:1054B8001A3200101C300010DC2F00101C300010B5
:1054C8001A3200101A3200101A3200101A32001064
:1054D8001A3200101A3200101A3200101A32001054
:1054E8001A3200101A3200101A3200101A32001044
:1054F8001A3200101A3200101A3200101A32001034
:10550800BE2D00101A3200101A3200101A32001084
:105518001A3200101A3200101A3200101A32001013
:105528001A3200101A320010BE2D00106C30001014
:10553800BE2D00101C300010DC2F00101C30001095
:105548001A320010BE2D00101A3200101A32001044
:105558001A3200101A3200101A320010BE2D001034
:10556800CE3100101A3200101A320010EE3000103E
:105578001A320010BE2D00101A3200101A32001014
:10558800BE2D0010666E692B00000000666E690073
:105598006E616E00666E692D00000000000000005C
:1055A800000000000000F03F000000000000244060
:1055B80000000000000059400000000000408F403B
:1055C800000000000088C34000000000006AF840A6
:1055D8000000000080842E4100000000D0126341CA
:1055E8000000000084D797410000000065CDCD4140
:1055F8002A282875696E74385F74202A2928282873
:10560800766F6964202A29726F6D5F646174615FC7
:105618006C6F6F6B757028726F6D5F7461626C650B
:105628005F636F6465282753272C2027462729297D
:10563800292D322929202A2034203E3D2053465F37
:105648005441424C455F56325F53495A4500000069
:105658002F686F6D652F70692F7069636F2F706980
:10566800636F2D73646B2F7372632F7270325F6375
:105678006F6D6D6F6E2F7069636F5F646F75626CAD
:10568800652F646F75626C655F696E69745F726FB0
:105698006D2E63005F5F61656162695F646F75624B
:1056A8006C655F696E6974002A282875696E74389C
:1056B8005F74202A2928726F6D5F7461626C652D92
:1056C800322929202A2034203E3D2053465F544168
:1056D800424C455F56325F53495A45002F686F6DFB
:1056E800652F70692F7069636F2F7069636F2D73F1
:1056F800646B2F7372632F7270325F636F6D6D6F9F
:105708006E2F7069636F5F666C6F61742F666C6F64
:1057180061745F696E69745F726F6D2E630000005B
:105728005F5F61656162695F666C6F61745F696E16
:105738006974000006005250BBFF3CB69057001039
:10574800060052503ABCA911845700100600525066
:10575800E182887F7457001006005250D3F07542DA
:105768006C5700104465627567000000626F6F74C3
:10577800325F77323571303830000000302E31001A
:10578800312E332E300000007069636F0000000076
:105798007465737470726F6A656374004D6172200A
:1057A80033302032303232000D0A000006005250E9
:1057B80053B4F4A1E05700100800525092000000C2
:1057C8005541525420737464696E00005541525417
:1057D800207374646F757400554152542073746457
:1057E800696E202F207374646F7574005F70696F21
:1057F8005F66696E645F6F66667365745F666F7215
:105808005F70726F6772616D000000004E6F2070EC
:10581800726F6772616D20737061636500000000CC
:1058280070726F6772616D2D3E6C656E677468206B
:105838003C3D2050494F5F494E53545255435449BB
:105848004F4E5F434F554E54000000002F686F6D58
:10585800652F70692F7069636F2F7069636F2D737F
:10586800646B2F7372632F7270325F636F6D6D6F2D
:105878006E2F68617264776172655F70696F2F70EF
:08588800696F2E6300000000AF
:10589000B4020010A80200109C0200103C57001037
:1058A0009002001048570010545700106057001025
:0858B000B4570010C0570010AE
:1058B80010B5D0231B0600241C570268EFF3108193
:1058C80072B61368002BFCD0BFF35F8F0423C35656
:1058D800002B08DB0368BFF35F8F00221A6081F397
:1058E800108820BFE9E704710368BFF35F8F0022C7
:1058F8001A6081F3108810BD10B50268EFF31084A8
:1059080072B61368002BFCD0BFF35F8F0423C35615
:10591800002B0CDB002911D00B6000210368BFF3BA
:105928005F8F00221A6084F31088080010BDD0230E
:105938001B061B785BB203710121EFE70021EDE73D
:1059480010B50268EFF3108172B61368002BFCD013
:10595800BFF35F8F0423C356002B0ADBFF230371B9
:105968000368BFF35F8F00221A6081F3108840BF7D
:1059780010BD034B034AA921034800F009F8C046AB
:105988002C4E0010D04D0010E44D00107047C0465A
:1059980001B40248844601BC604700BF9D1800104E
:1059A80010000000CC01002000000000B806002014
:1059B8001408002000000000000000002408002057
:1059C80000000000000000001000000000000000BF
:1059D80000000100000000000000000000000200BC
:1059E80000000000000000000000030000000000AC
:1059F800000000000000FF000000000000B548683B
:105A080001318E460047704609380149884700BD74
:105A1800051F00100000000000000000000000004A
:105A2800503300004C330000543300005233000060
:105A38004D5300004D430000533400004334000030
:105A4800A1440010000000001145001000000000F3
:105A580000010000000000007002002000000000AB
:105A6800000000005C050020C40500202C06002072
:105A7800000000000000000000000000000000001E
:105A8800000000000000000000000000000000000E
:105A980000000000000000000000000000000000FE
:105AA80000000000000000000000000000000000EE
:105AB80000000000000000000000000000000000DE
:105AC80000000000000000000000000000000000CE
